{
  "_format": "hh-sol-artifact-1",
  "contractName": "ReportCard",
  "sourceName": "contracts/ReportCard.sol",
  "abi": [
    {
      "anonymous": false,
      "inputs": [
        {
          "indexed": true,
          "internalType": "address",
          "name": "studentAddress",
          "type": "address"
        },
        {
          "indexed": false,
          "internalType": "string",
          "name": "name",
          "type": "string"
        },
        {
          "indexed": false,
          "internalType": "uint256",
          "name": "totalMarks",
          "type": "uint256"
        },
        {
          "indexed": false,
          "internalType": "string",
          "name": "grade",
          "type": "string"
        }
      ],
      "name": "ReportCardCreated",
      "type": "event"
    },
    {
      "inputs": [
        {
          "internalType": "address",
          "name": "studentAddress",
          "type": "address"
        },
        {
          "internalType": "string",
          "name": "name",
          "type": "string"
        },
        {
          "internalType": "uint256",
          "name": "math",
          "type": "uint256"
        },
        {
          "internalType": "uint256",
          "name": "science",
          "type": "uint256"
        },
        {
          "internalType": "uint256",
          "name": "english",
          "type": "uint256"
        },
        {
          "internalType": "uint256",
          "name": "history",
          "type": "uint256"
        }
      ],
      "name": "createReportCard",
      "outputs": [],
      "stateMutability": "nonpayable",
      "type": "function"
    },
    {
      "inputs": [
        {
          "internalType": "address",
          "name": "studentAddress",
          "type": "address"
        }
      ],
      "name": "getReportCard",
      "outputs": [
        {
          "internalType": "string",
          "name": "name",
          "type": "string"
        },
        {
          "internalType": "uint256",
          "name": "math",
          "type": "uint256"
        },
        {
          "internalType": "uint256",
          "name": "science",
          "type": "uint256"
        },
        {
          "internalType": "uint256",
          "name": "english",
          "type": "uint256"
        },
        {
          "internalType": "uint256",
          "name": "history",
          "type": "uint256"
        },
        {
          "internalType": "uint256",
          "name": "totalMarks",
          "type": "uint256"
        },
        {
          "internalType": "string",
          "name": "grade",
          "type": "string"
        }
      ],
      "stateMutability": "view",
      "type": "function"
    },
    {
      "inputs": [
        {
          "internalType": "address",
          "name": "",
          "type": "address"
        }
      ],
      "name": "reportCards",
      "outputs": [
        {
          "internalType": "string",
          "name": "name",
          "type": "string"
        },
        {
          "internalType": "uint256",
          "name": "math",
          "type": "uint256"
        },
        {
          "internalType": "uint256",
          "name": "science",
          "type": "uint256"
        },
        {
          "internalType": "uint256",
          "name": "english",
          "type": "uint256"
        },
        {
          "internalType": "uint256",
          "name": "history",
          "type": "uint256"
        },
        {
          "internalType": "uint256",
          "name": "totalMarks",
          "type": "uint256"
        },
        {
          "internalType": "string",
          "name": "grade",
          "type": "string"
        }
      ],
      "stateMutability": "view",
      "type": "function"
    }
  ],
  "bytecode": "0x608060405234801561001057600080fd5b50610f72806100206000396000f3fe608060405234801561001057600080fd5b50600436106100415760003560e01c80633460cd6f1461004657806383776cb8146100625780639f69398f14610098575b600080fd5b610060600480360381019061005b9190610943565b6100ce565b005b61007c600480360381019061007791906109ec565b6102c1565b60405161008f9796959493929190610aa7565b60405180910390f35b6100b260048036038101906100ad91906109ec565b6104ad565b6040516100c59796959493929190610aa7565b60405180910390f35b8560008060008373ffffffffffffffffffffffffffffffffffffffff1673ffffffffffffffffffffffffffffffffffffffff168152602001908152602001600020600001805461011d90610b53565b90501461015f576040517f08c379a000000000000000000000000000000000000000000000000000000000815260040161015690610bf6565b60405180910390fd5b60008284868861016f9190610c45565b6101799190610c45565b6101839190610c45565b90506000610190826105ff565b90506040518060e00160405280898152602001888152602001878152602001868152602001858152602001838152602001828152506000808b73ffffffffffffffffffffffffffffffffffffffff1673ffffffffffffffffffffffffffffffffffffffff16815260200190815260200160002060008201518160000190816102189190610e25565b506020820151816001015560408201518160020155606082015181600301556080820151816004015560a0820151816005015560c08201518160060190816102609190610e25565b509050508873ffffffffffffffffffffffffffffffffffffffff167f057537376c195a48a34ca58244975c59edf237c1688b65241cf3e196df5180518984846040516102ae93929190610ef7565b60405180910390a2505050505050505050565b60606000806000806000606060008060008a73ffffffffffffffffffffffffffffffffffffffff1673ffffffffffffffffffffffffffffffffffffffff1681526020019081526020016000206040518060e001604052908160008201805461032890610b53565b80601f016020809104026020016040519081016040528092919081815260200182805461035490610b53565b80156103a15780601f10610376576101008083540402835291602001916103a1565b820191906000526020600020905b81548152906001019060200180831161038457829003601f168201915b5050505050815260200160018201548152602001600282015481526020016003820154815260200160048201548152602001600582015481526020016006820180546103ec90610b53565b80601f016020809104026020016040519081016040528092919081815260200182805461041890610b53565b80156104655780601f1061043a57610100808354040283529160200191610465565b820191906000526020600020905b81548152906001019060200180831161044857829003601f168201915b5050505050815250509050806000015181602001518260400151836060015184608001518560a001518660c00151975097509750975097509750975050919395979092949650565b60006020528060005260406000206000915090508060000180546104d090610b53565b80601f01602080910402602001604051908101604052809291908181526020018280546104fc90610b53565b80156105495780601f1061051e57610100808354040283529160200191610549565b820191906000526020600020905b81548152906001019060200180831161052c57829003601f168201915b50505050509080600101549080600201549080600301549080600401549080600501549080600601805461057c90610b53565b80601f01602080910402602001604051908101604052809291908181526020018280546105a890610b53565b80156105f55780601f106105ca576101008083540402835291602001916105f5565b820191906000526020600020905b8154815290600101906020018083116105d857829003601f168201915b5050505050905087565b60606101688210610647576040518060400160405280600181526020017f41000000000000000000000000000000000000000000000000000000000000008152509050610750565b61012c821061068d576040518060400160405280600181526020017f42000000000000000000000000000000000000000000000000000000000000008152509050610750565b60f082106106d2576040518060400160405280600181526020017f43000000000000000000000000000000000000000000000000000000000000008152509050610750565b60b48210610717576040518060400160405280600181526020017f44000000000000000000000000000000000000000000000000000000000000008152509050610750565b6040518060400160405280600181526020017f460000000000000000000000000000000000000000000000000000000000000081525090505b919050565b6000604051905090565b600080fd5b600080fd5b600073ffffffffffffffffffffffffffffffffffffffff82169050919050565b600061079482610769565b9050919050565b6107a481610789565b81146107af57600080fd5b50565b6000813590506107c18161079b565b92915050565b600080fd5b600080fd5b6000601f19601f8301169050919050565b7f4e487b7100000000000000000000000000000000000000000000000000000000600052604160045260246000fd5b61081a826107d1565b810181811067ffffffffffffffff82111715610839576108386107e2565b5b80604052505050565b600061084c610755565b90506108588282610811565b919050565b600067ffffffffffffffff821115610878576108776107e2565b5b610881826107d1565b9050602081019050919050565b82818337600083830152505050565b60006108b06108ab8461085d565b610842565b9050828152602081018484840111156108cc576108cb6107cc565b5b6108d784828561088e565b509392505050565b600082601f8301126108f4576108f36107c7565b5b813561090484826020860161089d565b91505092915050565b6000819050919050565b6109208161090d565b811461092b57600080fd5b50565b60008135905061093d81610917565b92915050565b60008060008060008060c087890312156109605761095f61075f565b5b600061096e89828a016107b2565b965050602087013567ffffffffffffffff81111561098f5761098e610764565b5b61099b89828a016108df565b95505060406109ac89828a0161092e565b94505060606109bd89828a0161092e565b93505060806109ce89828a0161092e565b92505060a06109df89828a0161092e565b9150509295509295509295565b600060208284031215610a0257610a0161075f565b5b6000610a10848285016107b2565b91505092915050565b600081519050919050565b600082825260208201905092915050565b60005b83811015610a53578082015181840152602081019050610a38565b60008484015250505050565b6000610a6a82610a19565b610a748185610a24565b9350610a84818560208601610a35565b610a8d816107d1565b840191505092915050565b610aa18161090d565b82525050565b600060e0820190508181036000830152610ac1818a610a5f565b9050610ad06020830189610a98565b610add6040830188610a98565b610aea6060830187610a98565b610af76080830186610a98565b610b0460a0830185610a98565b81810360c0830152610b168184610a5f565b905098975050505050505050565b7f4e487b7100000000000000000000000000000000000000000000000000000000600052602260045260246000fd5b60006002820490506001821680610b6b57607f821691505b602082108103610b7e57610b7d610b24565b5b50919050565b7f5265706f7274206361726420616c72656164792065786973747320666f72207460008201527f6869732073747564656e74000000000000000000000000000000000000000000602082015250565b6000610be0602b83610a24565b9150610beb82610b84565b604082019050919050565b60006020820190508181036000830152610c0f81610bd3565b9050919050565b7f4e487b7100000000000000000000000000000000000000000000000000000000600052601160045260246000fd5b6000610c508261090d565b9150610c5b8361090d565b9250828201905080821115610c7357610c72610c16565b5b92915050565b60008190508160005260206000209050919050565b60006020601f8301049050919050565b600082821b905092915050565b600060088302610cdb7fffffffffffffffffffffffffffffffffffffffffffffffffffffffffffffffff82610c9e565b610ce58683610c9e565b95508019841693508086168417925050509392505050565b6000819050919050565b6000610d22610d1d610d188461090d565b610cfd565b61090d565b9050919050565b6000819050919050565b610d3c83610d07565b610d50610d4882610d29565b848454610cab565b825550505050565b600090565b610d65610d58565b610d70818484610d33565b505050565b5b81811015610d9457610d89600082610d5d565b600181019050610d76565b5050565b601f821115610dd957610daa81610c79565b610db384610c8e565b81016020851015610dc2578190505b610dd6610dce85610c8e565b830182610d75565b50505b505050565b600082821c905092915050565b6000610dfc60001984600802610dde565b1980831691505092915050565b6000610e158383610deb565b9150826002028217905092915050565b610e2e82610a19565b67ffffffffffffffff811115610e4757610e466107e2565b5b610e518254610b53565b610e5c828285610d98565b600060209050601f831160018114610e8f5760008415610e7d578287015190505b610e878582610e09565b865550610eef565b601f198416610e9d86610c79565b60005b82811015610ec557848901518255600182019150602085019450602081019050610ea0565b86831015610ee25784890151610ede601f891682610deb565b8355505b6001600288020188555050505b505050505050565b60006060820190508181036000830152610f118186610a5f565b9050610f206020830185610a98565b8181036040830152610f328184610a5f565b905094935050505056fea26469706673582212204fdf871f18b8ed67823da43727facd9b1e207bf7daa4b6088da48e91579a28f064736f6c63430008140033",
  "linkReferences": {},
  "deployedLinkReferences": {}
}